:020000040800F2
:100000000807002089010008CB0E00082F0D00080A
:10001000C90E00088F0200080B1000080000000045
:10002000000000000000000000000000CF0E0008EB
:100030009102000800000000CD0E0008D10E00085B
:10004000A3010008A3010008A3010008A301000800
:10005000A3010008A3010008A301000893020008FF
:10006000A3010008A3010008A3010008A3010008E0
:10007000A3010008A3010008A3010008A3010008D0
:10008000A3010008A3010008A3010008A3010008C0
:10009000A3010008A3010008A3010008A3010008B0
:1000A000A3010008A3010008A3010008A3010008A0
:1000B000A3010008A3010008A3010008A301000890
:1000C000A3010008A3010008A3010008A301000880
:1000D000A3010008A3010008A3010008A301000870
:1000E000A3010008A3010008A301000800F002F822
:1000F00000F03AF80AA090E8000C82448344AAF188
:100100000107DA4501D100F02FF8AFF2090EBAE885
:100110000F0013F0010F18BFFB1A43F0010318473B
:10012000A0120000C0120000103A24BF78C878C1A5
:10013000FAD8520724BF30C830C144BF04680C60ED
:10014000704700000023002400250026103A28BF35
:1001500078C1FBD8520728BF30C148BF0B60704739
:100160001FB51FBD10B510BD00F058F81146FFF7C0
:10017000F7FF00F0B5FF00F076F803B4FFF7F2FFE9
:1001800003BC00F07DF8000009488047094800479B
:10019000FEE7FEE7FEE7FEE7FEE7FEE7FEE7FEE737
:1001A000FEE7FEE704480549054A064B7047000094
:1001B000310F0008ED0000080801002008070020AA
:1001C00008030020080300204FF0000200B513468A
:1001D00094469646203922BFA0E80C50A0E80C5067
:1001E000B1F12001BFF4F7AF090728BFA0E80C5018
:1001F00048BF0CC05DF804EB890028BF40F8042B11
:1002000008BF704748BF20F8022B11F0804F18BF7D
:1002100000F8012B7047704770477047754600F033
:100220002BF8AE4605006946534620F00700854688
:1002300018B020B5FFF7B6FFBDE820404FF000062C
:100240004FF000074FF000084FF0000B21F00701BE
:10025000AC46ACE8C009ACE8C009ACE8C009ACE801
:10026000C0098D46704710B50446AFF300802046A4
:10027000BDE81040FFF781BF00487047A80000208C
:1002800001491820ABBEFEE7260002007047FEE7DA
:100290007047022000F01EB810B502280BD10221D1
:1002A000094800F013F90128084805D000F0BEFC09
:1002B00007490120087010BD00F090FC03490020A0
:1002C0000968486210BD0000000C01406000002079
:1002D00000000020044910B50A68024202D00860FC
:1002E000FFF7DAFF10BD0000140401402DE9F84FBC
:1002F000DFF8B8910024A9F1040B23460F2709F178
:10030000040AABF1040EC9E00125A5402A40AA4227
:100310007DD1674ED1F804C0ACEB0608B44532D0AD
:1003200014DCBCF1030F3AD009DCBCF1000F2AD079
:10033000BCF1010F1CD0BCF1020F31D11DE0BCF1AA
:10034000110F17D0BCF1120F2AD119E0B8F5881F90
:1003500019D006DCB8F5803F15D0B8F5801F1FD145
:1003600011E0B8F5001F0ED0B8F5041F18D10AE04F
:10037000CB6815E0CB681B1D12E0CB6808330FE09B
:10038000CB680C330CE08B682BB1012B4FF00803CA
:1003900003D0456104E0042302E0056100E000238E
:1003A000FF2A01D8064601E000F104064FEA840561
:1003B00001D9A5F12005D6F8008007FA05FC28EA46
:1003C0000C0803FA05F548EA0508C6F800804D68F0
:1003D000ED0062D5374DAE6946F00106AE61AD69FC
:1003E00024F0030605F001050095334D06EB050CDE
:1003F000DCF80850A607360F07FA06F825EA0805C4
:10040000DFF8B880404503D14FF0000817E044E022
:10041000DFF8AC80404502D14FF001080FE0DFF873
:10042000A480404502D14FF0020808E0DFF8988030
:10043000404502D14FF0030801E04FF0040808FAEC
:1004400006F848EA0508CCF808804D68D9F800603D
:10045000ED024D4601D5164300E096432E604D68EF
:10046000DAF80060AD02554601D5164300E0964328
:100470002E604D68DBF80060AD035D4601D5164384
:1004800000E096432E604D68DEF80060ED0375468F
:1004900001D5164300E096432E60641C0D682A4681
:1004A000E5407FF431AFBDE8F88F0000080401405B
:1004B000000011100010024000000140000801403F
:1004C000000C014000100140001401408068084009
:1004D00000D0012070470AB1016170470904FBE7B1
:1004E00001488068704700000800002002488168C9
:1004F000027811448160704708000020074810B559
:10050000016841F010010160032000F075F80F2030
:1005100000F006F800F024F8002010BD0020024092
:1005200070B50D4D04464FF47A712878B1FBF0F0A8
:100530000A490968B1FBF0F000F0BCFA48B9102C88
:1005400007D200222146501E00F036F800206C60D1
:1005500070BD012070BD00000800002014000020C4
:100560000C4808B5816941F001018161816901F0A0
:1005700001010091C16941F08051C161C06900F081
:10058000805000900448416821F0E06141F0007122
:10059000416008BD0010024000000140002809DB56
:1005A00000F01F02012191404009800000F1E0208D
:1005B000C0F8001170470000F0B40E4B1B680C46E9
:1005C000C3F30223C3F10705042D00D90425191D27
:1005D000072901D2002300E0DB1E012606FA05F1FF
:1005E000491E214099409E40761E16403143F0BC82
:1005F00000F00CBD0CED00E0064900F007020868B1
:100600004FF6FF03184040EA0220034A10430860F7
:10061000704700000CED00E00000FA052DE9F047FE
:100620000F46050061D0434E306800F00700B84225
:1006300009D2306820F0070038433060306800F09D
:100640000700B84251D128683B4C810712D54007BA
:1006500003D5606840F4E06060602878000703D547
:10066000606840F4605060606068A96820F0F00045
:10067000084360602878C00728D06868012810D037
:100680002168022810D0890700292EDA616821F03C
:10069000030101436160FFF723FF804641F288397F
:1006A0000DE021688903EFE78901EDE7FFF718FF07
:1006B000A0EB0801494502D90320BDE8F087606836
:1006C000696800F00C00B0EB810FEFD1306800F0EA
:1006D0000700B8420BD9306820F00700384330607B
:1006E000306800F00700B84201D00120E5E7287823
:1006F000400705D56068E96820F4E0600843606061
:100700002878000706D56068296920F4605040EA1F
:10071000C100606000F018F86168084AC1F3031175
:10072000515CC8400649086006480068FFF7F8FEBB
:100730000020C2E70020024000100240B013000871
:10074000140000200C0000200E4A51680E4801F0F1
:100750000C03042B11D0082B0FD10C48C1F3834399
:10076000C903C05C0AD55168084AC1F34041921ED2
:10077000515C054A5043B0FBF1F0704704494843CF
:10078000704700000010024000127A00A013000819
:1007900000093D002DE9F84F040070D02078C04DCD
:1007A000C00749D06868C0F38100012807D0686895
:1007B000C0F38100022809D16868C00306D5286803
:1007C000800339D560680028E7D035E06068B0F56F
:1007D000803F0BD010B1B0F5A02F11D0286820F4C5
:1007E00080302860286820F4802002E0286840F4E7
:1007F00080302860606890B1FFF772FE06460AE01C
:10080000286840F480202860F0E700BFFFF768FE0A
:10081000801B642873D828688003F7D50CE0FFF7A5
:100820005FFE064605E000BFFFF75AFE801B642806
:10083000F0D828688003F7D420789A4E80074FF0CC
:1008400001094FF0000839D5686810F00C0F07D087
:100850006868C0F38100022809D16868C00306D423
:100860002868800714D52069012808D110E0206984
:10087000B0B1C6F80090FFF733FE074605E00AE185
:10088000FFF72EFEC01B0228C4D828688007F7D5C2
:100890002868616920F0F80040EAC10028600DE096
:1008A000C6F80080FFF71CFE074604E0FFF718FEBD
:1008B000C01B022823D828688007F7D420780007B7
:1008C0002CD57948A169D9B1C0F80090FFF708FE8E
:1008D000074604E0FFF704FEC01B02280FD8686A31
:1008E0008007F7D571484FF4FA510068B0FBF1F07A
:1008F000009000BF0098411E0091FAD20EE080E007
:10090000C0F80080FFF7ECFD074604E0FFF7E8FDC4
:10091000C01B022875D8686A8007F7D42078400782
:1009200060D5E8690027C00008D4E86940F080502D
:10093000E861E869012700F0805000905C48016898
:10094000C90513D40168834641F480710160FFF743
:10095000C7FD824606E000BFFFF7C2FDA0EB0A001C
:1009600064284ED8DBF80000C005F5D5E068012802
:100970000AD008B1052813D0286A20F001002862A7
:10098000286A20F0040002E0286A40F00100286292
:10099000E06841F2883B98B1FFF7A2FD82460BE088
:1009A000286A40F004002862EEE700BFFFF798FDD8
:1009B000A0EB0A0159455AD8286A8007F6D50CE001
:1009C000FFF78EFD824605E0FFF78AFDA0EB0A01E6
:1009D00059454CD8286A8007F6D41FB1E86920F041
:1009E0008050E861E06988B36968C1F38101022938
:1009F00044D00228C6F8608004D0FFF771FD044699
:100A000038E034E0FFF76CFD074604E0FFF768FDCF
:100A1000C01B02282BD828688001F7D4206AB0F5C3
:100A2000803F05D16868A16820F400300843686001
:100A3000D4E908010843696821F474110843686027
:100A4000C6F86090FFF74CFD044606E025E000BFC5
:100A5000FFF746FD001B022809D828688001F7D55A
:100A60001BE000BFFFF73CFD001B022802D903205A
:100A7000BDE8F88F28688001F4D40EE00128F7D093
:100A80006868226A00F48031914204D1616A00F4FE
:100A90007010884201D00120EAE70020E8E700005A
:100AA0000010024000004242800442421400002034
:100AB0000070004010B5401EB0F1807F01D30120CE
:100AC00010BD4FF0E02460610F21601700F09EFA26
:100AD0000020A06107202061002010BD70B590F8B3
:100AE0003C20012A26D0012480F83C40022280F8D4
:100AF0003D2003685A689D6822F070060A683243F8
:100B00005A600D4B02689A4208D0B2F1804F05D06E
:100B10000A4B9A4202D00A4B9A4204D1496825F006
:100B200080031943916080F83D40002180F83C101B
:100B3000084670BD022070BD002C0140000400403A
:100B40000008004010B5040003D094F83D0010B137
:100B500007E0012010BD002084F83C00204600F092
:100B60001FF8022084F83D00211D206800F0E2F902
:100B7000012084F8460084F83E0084F83F0084F8A1
:100B8000400084F8410084F8420084F8430084F86F
:100B9000440084F8450084F83D00002010BD0000AA
:100BA00008B501680B48B1F1804F0BD00A4A914259
:100BB00007D1C16941F00201C161C06900F00200C2
:100BC000009008BDC16941F00101C161C06900F038
:100BD0000100F5E7001002400004004090F83D10CD
:100BE000012901D001207047022180F83D100068E2
:100BF0000B49884208D0B0F1804F05D0094988429E
:100C000002D00949884204D1816801F00701062910
:100C100003D0016841F0010101600020704700002D
:100C2000002C0140000400400008004001680A6AEE
:100C300041F211131A4207D10A6A9B101A4203D1DA
:100C40000A6822F001020A60012180F83D100020AC
:100C5000704770B5044690F83C000025012817D075
:100C6000012684F83C60022084F83D0020688268F8
:100C700022F0770222F47F4282600868502838D040
:100C80000DDC20284FD005DC90B3102811D14AE0AC
:100C9000022070BD302846D040280AD13BE06028B1
:100CA0002FD070280DD0B0F5805F03D0B0F5005F75
:100CB00012D0012584F83D60002084F83C002846CD
:100CC00070BDCB68D1E90121206800F069F9206886
:100CD000816841F0770109E0CB68D1E90121206802
:100CE00000F05EF92068816841F480418160E1E7AD
:100CF00019E0CA684968206800F064F9502120684A
:100D000006E0CA684968206800F06DF96021206833
:100D100000F050F9CEE7CA684968206800F052F93F
:100D200040212068F4E7226801461046F0E7FEE71C
:100D30002DE9F04186B000252C48009501950295DB
:100D40000395816941F010018161816901F0100111
:100D50000491816941F020018161816901F02001E4
:100D60000491816941F008018161816901F0080104
:100D70000491816941F00401816180691C4F00F098
:100D800004004FF400540490002221463846FFF737
:100D9000A2FBDFF86080002201214046FFF79BFBA9
:100DA000009401AA0124022682E8700069463846B0
:100DB000FFF79CFA01AA009482E870006946404659
:100DC000FFF794FA0C480096CDE9010469464046C5
:100DD000FFF78CFA002201210720FFF7EDFB072027
:100DE000FFF7DCFB06B0BDE8F08100000010024018
:100DF00000100140000C01400000311010B586B019
:100E000000241648009401940294039404944FF033
:100E10008041059401603F21C0E901144FF6FF7144
:100E2000C0E903148461FFF78DFE08B172B6FEE7D6
:100E30004FF48050009069460848FFF70AFF08B158
:100E400072B6FEE7049404A904480594FFF746FE31
:100E5000002801D072B6FEE706B010BD18000020D1
:100E600010B586B0002417480094019402940394AE
:100E700004941349059401603F21C0E901144FF621
:100E8000FF71C0E903148461FFF75CFE08B172B61C
:100E9000FEE74FF48050009069460A48FFF7D9FEFC
:100EA00008B172B6FEE7049404A906480594FFF75A
:100EB00015FE002801D072B6FEE706B010BD000096
:100EC0000004004060000020FEE7FEE77047704726
:100ED000FFF70CBB30B58FB028216846FFF774F9D7
:100EE00014210AA8FFF770F902250120049000954B
:100EF0001020059000244FF46010CDE908400795BC
:100F00006846FFF747FC08B172B6FEE70F20CDE94F
:100F10000A054FF48060CDE90C4002210AA80E9426
:100F2000FFF77CFB002801D072B6FEE70FB030BDA2
:100F300070470000F0B50268164B174C174D4FF084
:100F40008047984205D0B84203D0A04201D0A842C1
:100F500003D122F070064A683243984205D0B84265
:100F600003D0A04201D0A84203D122F44074CA6841
:100F700022434C6922F08002224302608A68C262E6
:100F80000A688262984201D10969016301214161C5
:100F9000F0BD0000002C01400004004000080040AB
:100FA00010B5846842EA032224F47F440A432243B2
:100FB000826010BD826822F070020A4342F007018D
:100FC0008160704710B5036A046A24F0010404626A
:100FD000846924F0F00444EA021423F00A020A436C
:100FE0008461026210BD10B5036A046A24F0100423
:100FF0000462846923F0A00324F4704444EA0232BA
:1010000043EA01118261016210BDFEE70907090E82
:10101000002804DB00F1E02080F80014704700F0A5
:101020000F0000F1E02080F8141D704770B50546F0
:1010300000244FF47A7604E0304600F005F8641C92
:10104000A4B2AC42F8D370BD70B5084C0546002080
:10105000216848622046FFF7C1FD2068416AA94225
:10106000FCD3BDE870400148FFF7E0BD1800002048
:1010700070B5164C0546012211462046FFF72BFAA3
:101080000F20FFF7E1FF002201212046FFF723FA9E
:10109000FFF726FA04460E4E07E000BFFFF720FADE
:1010A000001BA84201D3002070BD30780028F5D085
:1010B00008480068406A80B200F05BF8064A074BB7
:1010C00000F06AF8BDE8704000F022B8000C014062
:1010D00000000020600000209CC420B07268913F96
:1010E000FFF70CFAFFF7F6FEFFF722FEFFF786FE8A
:1010F000FFF7B6FE054D4FF496742046FFF7B8FF94
:1011000068602046FFF792FFF7E70000000000202C
:1011100021F00042A2F16052B2F5801F01F00043BD
:1011200028BFD2F17F6C0BD95FEA001C43EAC202F0
:1011300042EB507018BF704728BF20F00100704785
:10114000B2F5801FBCBF184670474FEA410C1CF532
:10115000001F02D2084600F01DB970B500F0C6F8B5
:1011600000000089FFF7F6BF4FF00040A0F58000B7
:101170007047B0FA80F310FA03F10AD0C3F11D03EF
:1011800003F580634FEA41504FEA035202EBD1214D
:1011900070474FF000007047DFF848C170B51CEA97
:1011A000111E1EBF1CEA13159EEA0C0F95EA0C0FC8
:1011B00000F06F8081EA030423EA4C134EEAD47EE8
:1011C00021EA4C1141F4801143F48013AE44A1FB99
:1011D000024CA0FB0365AEF17F7E361955EB0C0582
:1011E000A1FB034C4CF10003A0FB021C16EB0C0608
:1011F000654153F10003094218BF46F0010613F49C
:10120000007F0BD14FEA03314FEA0530340341EA46
:10121000155140EA16506FF003020AE04FEAC3216D
:101220004FEAC520F40241EA555140EA56506FF0AA
:10123000020202EB2E4201EB025585EACE710AD082
:101240005FEA440C18BF24F0004450F1000041F163
:10125000000120EAD47040F2FE7C624500D270BDED
:10126000A84214BF4FF080444FF04044002E08BF06
:101270000024BEF1806FA8BFA1F1C041BDE870405D
:1012800080F282804FF0000001F1C04101F0004186
:1012900070479EEA0C0F0CEA131518BF95EA0C0F65
:1012A00006D04FF0000081EA030E0EF0004170BD41
:1012B00000F01CF88900013E00F007B800F009B802
:1012C0004FEA430C5FEA5C5C08D081EA030100F05E
:1012D0005BB84FEA410C5FEA5C5CF6D14FF000006E
:1012E000014970470000FF070000F87F0EF1020E71
:1012F0002EF0030E5EF8046B364205D4012A43EB50
:10130000030515F5001F12D8012841EB010C1CF54F
:10131000001F0CD80ED14FEAD17C15F5001F0CEB45
:101320004C0C0CF1020C08BF4CEBD37C04E04FF0EA
:10133000080C01E04FEAD37C0CEB4C0526FA05F6CD
:1013400006F00706B6F1040C06D20EEB860CBDE8DB
:1013500070404CF0010C6047DFE80CF0090B020212
:101360004FF000414FF00000A1F5002170BD19467B
:101370001046012851EB010418BFD4F5001484BFB6
:10138000002001F0004170BD0808A0F500114FEAEF
:1013900031017047FF2141EAD050C005704701027A
:1013A00002030405060708090A0B0C0D0E0F1010A6
:1013B0000000000000000000010203040607080905
:1013C000E0130008000000201800000028010008B9
:1013D000F813000818000020F0060000440100087F
:1013E00000000000000000000100000010000000EC
:0813F000000000000024F400DD
:04000005080000ED02
:00000001FF
